{
  "_format": "hh-sol-artifact-1",
  "contractName": "CreditScore",
  "sourceName": "contracts/CreditScore.sol",
  "abi": [
    {
      "inputs": [],
      "stateMutability": "nonpayable",
      "type": "constructor"
    },
    {
      "inputs": [
        {
          "internalType": "address",
          "name": "_user",
          "type": "address"
        },
        {
          "internalType": "uint256",
          "name": "_amount",
          "type": "uint256"
        },
        {
          "internalType": "string",
          "name": "_description",
          "type": "string"
        },
        {
          "internalType": "uint256",
          "name": "_dueDate",
          "type": "uint256"
        }
      ],
      "name": "addBill",
      "outputs": [],
      "stateMutability": "nonpayable",
      "type": "function"
    },
    {
      "inputs": [
        {
          "internalType": "address",
          "name": "",
          "type": "address"
        },
        {
          "internalType": "uint256",
          "name": "",
          "type": "uint256"
        }
      ],
      "name": "bills",
      "outputs": [
        {
          "internalType": "uint256",
          "name": "amount",
          "type": "uint256"
        },
        {
          "internalType": "uint256",
          "name": "dueDate",
          "type": "uint256"
        },
        {
          "internalType": "bool",
          "name": "paid",
          "type": "bool"
        },
        {
          "internalType": "string",
          "name": "description",
          "type": "string"
        }
      ],
      "stateMutability": "view",
      "type": "function"
    },
    {
      "inputs": [
        {
          "internalType": "address",
          "name": "",
          "type": "address"
        }
      ],
      "name": "creditScores",
      "outputs": [
        {
          "internalType": "uint256",
          "name": "",
          "type": "uint256"
        }
      ],
      "stateMutability": "view",
      "type": "function"
    },
    {
      "inputs": [
        {
          "internalType": "address",
          "name": "_user",
          "type": "address"
        }
      ],
      "name": "getCreditScore",
      "outputs": [
        {
          "internalType": "uint256",
          "name": "",
          "type": "uint256"
        }
      ],
      "stateMutability": "view",
      "type": "function"
    },
    {
      "inputs": [],
      "name": "owner",
      "outputs": [
        {
          "internalType": "address",
          "name": "",
          "type": "address"
        }
      ],
      "stateMutability": "view",
      "type": "function"
    },
    {
      "inputs": [
        {
          "internalType": "address",
          "name": "_user",
          "type": "address"
        },
        {
          "internalType": "uint256",
          "name": "_billIndex",
          "type": "uint256"
        }
      ],
      "name": "payBill",
      "outputs": [],
      "stateMutability": "nonpayable",
      "type": "function"
    },
    {
      "inputs": [
        {
          "internalType": "address",
          "name": "_user",
          "type": "address"
        }
      ],
      "name": "viewBills",
      "outputs": [
        {
          "components": [
            {
              "internalType": "uint256",
              "name": "amount",
              "type": "uint256"
            },
            {
              "internalType": "uint256",
              "name": "dueDate",
              "type": "uint256"
            },
            {
              "internalType": "bool",
              "name": "paid",
              "type": "bool"
            },
            {
              "internalType": "string",
              "name": "description",
              "type": "string"
            }
          ],
          "internalType": "struct CreditScore.Bill[]",
          "name": "",
          "type": "tuple[]"
        },
        {
          "internalType": "uint256[]",
          "name": "",
          "type": "uint256[]"
        }
      ],
      "stateMutability": "view",
      "type": "function"
    }
  ],
  "bytecode": "0x608060405234801561001057600080fd5b50336000806101000a81548173ffffffffffffffffffffffffffffffffffffffff021916908373ffffffffffffffffffffffffffffffffffffffff160217905550611595806100606000396000f3fe608060405234801561001057600080fd5b506004361061007d5760003560e01c80638da5cb5b1161005b5780638da5cb5b146100ff5780638f6fa0b21461011d578063d3dd2bdf14610150578063eb5bb7cf146101805761007d565b8063229344871461008257806333e2d6f61461009e57806380bb7273146100cf575b600080fd5b61009c60048036038101906100979190610d55565b61019c565b005b6100b860048036038101906100b39190610d2c565b610521565b6040516100c6929190611106565b60405180910390f35b6100e960048036038101906100e49190610d2c565b610864565b6040516100f6919061119d565b60405180910390f35b61010761087c565b60405161011491906110eb565b60405180910390f35b61013760048036038101906101329190610d55565b6108a0565b60405161014794939291906111b8565b60405180910390f35b61016a60048036038101906101659190610d2c565b610982565b604051610177919061119d565b60405180910390f35b61019a60048036038101906101959190610d91565b6109cb565b005b600260008373ffffffffffffffffffffffffffffffffffffffff1673ffffffffffffffffffffffffffffffffffffffff168152602001908152602001600020805490508110610220576040517f08c379a00000000000000000000000000000000000000000000000000000000081526004016102179061113d565b60405180910390fd5b6000600260008473ffffffffffffffffffffffffffffffffffffffff1673ffffffffffffffffffffffffffffffffffffffff1681526020019081526020016000208281548110610299577f4e487b7100000000000000000000000000000000000000000000000000000000600052603260045260246000fd5b906000526020600020906004020190508060020160009054906101000a900460ff16156102fb576040517f08c379a00000000000000000000000000000000000000000000000000000000081526004016102f29061115d565b60405180910390fd5b60004290508160010154811161045e5760018260020160006101000a81548160ff021916908315150217905550610384600160008673ffffffffffffffffffffffffffffffffffffffff1673ffffffffffffffffffffffffffffffffffffffff16815260200190815260200160002054101561045957600a600160008673ffffffffffffffffffffffffffffffffffffffff1673ffffffffffffffffffffffffffffffffffffffff16815260200190815260200160002060008282546103c19190611304565b92505081905550610384600160008673ffffffffffffffffffffffffffffffffffffffff1673ffffffffffffffffffffffffffffffffffffffff16815260200190815260200160002054111561045857610384600160008673ffffffffffffffffffffffffffffffffffffffff1673ffffffffffffffffffffffffffffffffffffffff168152602001908152602001600020819055505b5b61051b565b6005600160008673ffffffffffffffffffffffffffffffffffffffff1673ffffffffffffffffffffffffffffffffffffffff16815260200190815260200160002054106104fd576005600160008673ffffffffffffffffffffffffffffffffffffffff1673ffffffffffffffffffffffffffffffffffffffff16815260200190815260200160002060008282546104f5919061135a565b925050819055505b60018260020160006101000a81548160ff0219169083151502179055505b50505050565b6060806000600260008573ffffffffffffffffffffffffffffffffffffffff1673ffffffffffffffffffffffffffffffffffffffff16815260200190815260200160002080549050905060008167ffffffffffffffff8111156105ad577f4e487b7100000000000000000000000000000000000000000000000000000000600052604160045260246000fd5b6040519080825280602002602001820160405280156105e657816020015b6105d3610bcd565b8152602001906001900390816105cb5790505b50905060008267ffffffffffffffff81111561062b577f4e487b7100000000000000000000000000000000000000000000000000000000600052604160045260246000fd5b6040519080825280602002602001820160405280156106595781602001602082028036833780820191505090505b50905060005b8381101561085557600260008873ffffffffffffffffffffffffffffffffffffffff1673ffffffffffffffffffffffffffffffffffffffff16815260200190815260200160002081815481106106de577f4e487b7100000000000000000000000000000000000000000000000000000000600052603260045260246000fd5b906000526020600020906004020160405180608001604052908160008201548152602001600182015481526020016002820160009054906101000a900460ff1615151515815260200160038201805461073690611418565b80601f016020809104026020016040519081016040528092919081815260200182805461076290611418565b80156107af5780601f10610784576101008083540402835291602001916107af565b820191906000526020600020905b81548152906001019060200180831161079257829003601f168201915b5050505050815250508382815181106107f1577f4e487b7100000000000000000000000000000000000000000000000000000000600052603260045260246000fd5b602002602001018190525080828281518110610836577f4e487b7100000000000000000000000000000000000000000000000000000000600052603260045260246000fd5b602002602001018181525050808061084d9061144a565b91505061065f565b50818194509450505050915091565b60016020528060005260406000206000915090505481565b60008054906101000a900473ffffffffffffffffffffffffffffffffffffffff1681565b600260205281600052604060002081815481106108bc57600080fd5b9060005260206000209060040201600091509150508060000154908060010154908060020160009054906101000a900460ff16908060030180546108ff90611418565b80601f016020809104026020016040519081016040528092919081815260200182805461092b90611418565b80156109785780601f1061094d57610100808354040283529160200191610978565b820191906000526020600020905b81548152906001019060200180831161095b57829003601f168201915b5050505050905084565b6000600160008373ffffffffffffffffffffffffffffffffffffffff1673ffffffffffffffffffffffffffffffffffffffff168152602001908152602001600020549050919050565b60008054906101000a900473ffffffffffffffffffffffffffffffffffffffff1673ffffffffffffffffffffffffffffffffffffffff163373ffffffffffffffffffffffffffffffffffffffff1614610a59576040517f08c379a0000000000000000000000000000000000000000000000000000000008152600401610a509061117d565b60405180910390fd5b600260008573ffffffffffffffffffffffffffffffffffffffff1673ffffffffffffffffffffffffffffffffffffffff1681526020019081526020016000206040518060800160405280858152602001838152602001600015158152602001848152509080600181540180825580915050600190039060005260206000209060040201600090919091909150600082015181600001556020820151816001015560408201518160020160006101000a81548160ff0219169083151502179055506060820151816003019080519060200190610b35929190610bf7565b5050506000600160008673ffffffffffffffffffffffffffffffffffffffff1673ffffffffffffffffffffffffffffffffffffffff168152602001908152602001600020541415610bc75761028a600160008673ffffffffffffffffffffffffffffffffffffffff1673ffffffffffffffffffffffffffffffffffffffff168152602001908152602001600020819055505b50505050565b60405180608001604052806000815260200160008152602001600015158152602001606081525090565b828054610c0390611418565b90600052602060002090601f016020900481019282610c255760008555610c6c565b82601f10610c3e57805160ff1916838001178555610c6c565b82800160010185558215610c6c579182015b82811115610c6b578251825591602001919060010190610c50565b5b509050610c799190610c7d565b5090565b5b80821115610c96576000816000905550600101610c7e565b5090565b6000610cad610ca884611235565b611204565b905082815260208101848484011115610cc557600080fd5b610cd08482856113d6565b509392505050565b600081359050610ce781611531565b92915050565b600082601f830112610cfe57600080fd5b8135610d0e848260208601610c9a565b91505092915050565b600081359050610d2681611548565b92915050565b600060208284031215610d3e57600080fd5b6000610d4c84828501610cd8565b91505092915050565b60008060408385031215610d6857600080fd5b6000610d7685828601610cd8565b9250506020610d8785828601610d17565b9150509250929050565b60008060008060808587031215610da757600080fd5b6000610db587828801610cd8565b9450506020610dc687828801610d17565b935050604085013567ffffffffffffffff811115610de357600080fd5b610def87828801610ced565b9250506060610e0087828801610d17565b91505092959194509250565b6000610e18838361106a565b905092915050565b6000610e2c83836110cd565b60208301905092915050565b610e418161138e565b82525050565b6000610e5282611285565b610e5c81856112c0565b935083602082028501610e6e85611265565b8060005b85811015610eaa5784840389528151610e8b8582610e0c565b9450610e96836112a6565b925060208a01995050600181019050610e72565b50829750879550505050505092915050565b6000610ec782611290565b610ed181856112d1565b9350610edc83611275565b8060005b83811015610f0d578151610ef48882610e20565b9750610eff836112b3565b925050600181019050610ee0565b5085935050505092915050565b610f23816113a0565b82525050565b610f32816113a0565b82525050565b6000610f438261129b565b610f4d81856112e2565b9350610f5d8185602086016113e5565b610f6681611520565b840191505092915050565b6000610f7c8261129b565b610f8681856112f3565b9350610f968185602086016113e5565b610f9f81611520565b840191505092915050565b6000610fb76012836112f3565b91507f496e76616c69642062696c6c20696e64657800000000000000000000000000006000830152602082019050919050565b6000610ff76011836112f3565b91507f42696c6c20616c726561647920706169640000000000000000000000000000006000830152602082019050919050565b60006110376016836112f3565b91507f4e6f742074686520636f6e7472616374206f776e6572000000000000000000006000830152602082019050919050565b600060808301600083015161108260008601826110cd565b50602083015161109560208601826110cd565b5060408301516110a86040860182610f1a565b50606083015184820360608601526110c08282610f38565b9150508091505092915050565b6110d6816113cc565b82525050565b6110e5816113cc565b82525050565b60006020820190506111006000830184610e38565b92915050565b600060408201905081810360008301526111208185610e47565b905081810360208301526111348184610ebc565b90509392505050565b6000602082019050818103600083015261115681610faa565b9050919050565b6000602082019050818103600083015261117681610fea565b9050919050565b600060208201905081810360008301526111968161102a565b9050919050565b60006020820190506111b260008301846110dc565b92915050565b60006080820190506111cd60008301876110dc565b6111da60208301866110dc565b6111e76040830185610f29565b81810360608301526111f98184610f71565b905095945050505050565b6000604051905081810181811067ffffffffffffffff8211171561122b5761122a6114f1565b5b8060405250919050565b600067ffffffffffffffff8211156112505761124f6114f1565b5b601f19601f8301169050602081019050919050565b6000819050602082019050919050565b6000819050602082019050919050565b600081519050919050565b600081519050919050565b600081519050919050565b6000602082019050919050565b6000602082019050919050565b600082825260208201905092915050565b600082825260208201905092915050565b600082825260208201905092915050565b600082825260208201905092915050565b600061130f826113cc565b915061131a836113cc565b9250827fffffffffffffffffffffffffffffffffffffffffffffffffffffffffffffffff0382111561134f5761134e611493565b5b828201905092915050565b6000611365826113cc565b9150611370836113cc565b92508282101561138357611382611493565b5b828203905092915050565b6000611399826113ac565b9050919050565b60008115159050919050565b600073ffffffffffffffffffffffffffffffffffffffff82169050919050565b6000819050919050565b82818337600083830152505050565b60005b838110156114035780820151818401526020810190506113e8565b83811115611412576000848401525b50505050565b6000600282049050600182168061143057607f821691505b60208210811415611444576114436114c2565b5b50919050565b6000611455826113cc565b91507fffffffffffffffffffffffffffffffffffffffffffffffffffffffffffffffff82141561148857611487611493565b5b600182019050919050565b7f4e487b7100000000000000000000000000000000000000000000000000000000600052601160045260246000fd5b7f4e487b7100000000000000000000000000000000000000000000000000000000600052602260045260246000fd5b7f4e487b7100000000000000000000000000000000000000000000000000000000600052604160045260246000fd5b6000601f19601f8301169050919050565b61153a8161138e565b811461154557600080fd5b50565b611551816113cc565b811461155c57600080fd5b5056fea2646970667358221220e97333ca8dc3fca022fbf6479d322f3e657426871256bcdef638d45369bfaac764736f6c63430008000033",
  "linkReferences": {},
  "deployedLinkReferences": {}
}