{
  "_format": "hh-sol-artifact-1",
  "contractName": "CreditScore",
  "sourceName": "contracts/CreditScore.sol",
  "abi": [
    {
      "inputs": [],
      "stateMutability": "nonpayable",
      "type": "constructor"
    },
    {
      "inputs": [
        {
          "internalType": "address",
          "name": "_user",
          "type": "address"
        },
        {
          "internalType": "uint256",
          "name": "_amount",
          "type": "uint256"
        },
        {
          "internalType": "string",
          "name": "_description",
          "type": "string"
        }
      ],
      "name": "addBill",
      "outputs": [],
      "stateMutability": "nonpayable",
      "type": "function"
    },
    {
      "inputs": [
        {
          "internalType": "address",
          "name": "",
          "type": "address"
        },
        {
          "internalType": "uint256",
          "name": "",
          "type": "uint256"
        }
      ],
      "name": "bills",
      "outputs": [
        {
          "internalType": "uint256",
          "name": "amount",
          "type": "uint256"
        },
        {
          "internalType": "uint256",
          "name": "dueDate",
          "type": "uint256"
        },
        {
          "internalType": "bool",
          "name": "paid",
          "type": "bool"
        },
        {
          "internalType": "string",
          "name": "description",
          "type": "string"
        }
      ],
      "stateMutability": "view",
      "type": "function"
    },
    {
      "inputs": [
        {
          "internalType": "address",
          "name": "",
          "type": "address"
        }
      ],
      "name": "creditScores",
      "outputs": [
        {
          "internalType": "uint256",
          "name": "",
          "type": "uint256"
        }
      ],
      "stateMutability": "view",
      "type": "function"
    },
    {
      "inputs": [
        {
          "internalType": "address",
          "name": "_user",
          "type": "address"
        }
      ],
      "name": "getCreditScore",
      "outputs": [
        {
          "internalType": "uint256",
          "name": "",
          "type": "uint256"
        }
      ],
      "stateMutability": "view",
      "type": "function"
    },
    {
      "inputs": [],
      "name": "owner",
      "outputs": [
        {
          "internalType": "address",
          "name": "",
          "type": "address"
        }
      ],
      "stateMutability": "view",
      "type": "function"
    },
    {
      "inputs": [
        {
          "internalType": "address",
          "name": "_user",
          "type": "address"
        },
        {
          "internalType": "uint256",
          "name": "_billIndex",
          "type": "uint256"
        }
      ],
      "name": "payBill",
      "outputs": [],
      "stateMutability": "nonpayable",
      "type": "function"
    },
    {
      "inputs": [
        {
          "internalType": "address",
          "name": "_user",
          "type": "address"
        }
      ],
      "name": "viewBills",
      "outputs": [
        {
          "components": [
            {
              "internalType": "uint256",
              "name": "amount",
              "type": "uint256"
            },
            {
              "internalType": "uint256",
              "name": "dueDate",
              "type": "uint256"
            },
            {
              "internalType": "bool",
              "name": "paid",
              "type": "bool"
            },
            {
              "internalType": "string",
              "name": "description",
              "type": "string"
            }
          ],
          "internalType": "struct CreditScore.Bill[]",
          "name": "",
          "type": "tuple[]"
        },
        {
          "internalType": "uint256[]",
          "name": "",
          "type": "uint256[]"
        }
      ],
      "stateMutability": "view",
      "type": "function"
    }
  ],
  "bytecode": "0x608060405234801561001057600080fd5b50336000806101000a81548173ffffffffffffffffffffffffffffffffffffffff021916908373ffffffffffffffffffffffffffffffffffffffff16021790555061178c806100606000396000f3fe608060405234801561001057600080fd5b506004361061007d5760003560e01c806380bb72731161005b57806380bb7273146100eb5780638da5cb5b1461011b5780638f6fa0b214610139578063d3dd2bdf1461016c5761007d565b8063229344871461008257806333e2d6f61461009e5780636f932499146100cf575b600080fd5b61009c60048036038101906100979190610ea6565b61019c565b005b6100b860048036038101906100b39190610e7d565b610521565b6040516100c6929190611243565b60405180910390f35b6100e960048036038101906100e49190610ee2565b610864565b005b61010560048036038101906101009190610e7d565b610bb7565b60405161011291906112da565b60405180910390f35b610123610bcf565b6040516101309190611228565b60405180910390f35b610153600480360381019061014e9190610ea6565b610bf3565b60405161016394939291906112f5565b60405180910390f35b61018660048036038101906101819190610e7d565b610cd5565b60405161019391906112da565b60405180910390f35b600260008373ffffffffffffffffffffffffffffffffffffffff1673ffffffffffffffffffffffffffffffffffffffff168152602001908152602001600020805490508110610220576040517f08c379a00000000000000000000000000000000000000000000000000000000081526004016102179061127a565b60405180910390fd5b6000600260008473ffffffffffffffffffffffffffffffffffffffff1673ffffffffffffffffffffffffffffffffffffffff1681526020019081526020016000208281548110610299577f4e487b7100000000000000000000000000000000000000000000000000000000600052603260045260246000fd5b906000526020600020906004020190508060020160009054906101000a900460ff16156102fb576040517f08c379a00000000000000000000000000000000000000000000000000000000081526004016102f29061129a565b60405180910390fd5b60004290508160010154811161045e5760018260020160006101000a81548160ff021916908315150217905550610384600160008673ffffffffffffffffffffffffffffffffffffffff1673ffffffffffffffffffffffffffffffffffffffff16815260200190815260200160002054101561045957600a600160008673ffffffffffffffffffffffffffffffffffffffff1673ffffffffffffffffffffffffffffffffffffffff16815260200190815260200160002060008282546103c19190611441565b92505081905550610384600160008673ffffffffffffffffffffffffffffffffffffffff1673ffffffffffffffffffffffffffffffffffffffff16815260200190815260200160002054111561045857610384600160008673ffffffffffffffffffffffffffffffffffffffff1673ffffffffffffffffffffffffffffffffffffffff168152602001908152602001600020819055505b5b61051b565b6005600160008673ffffffffffffffffffffffffffffffffffffffff1673ffffffffffffffffffffffffffffffffffffffff16815260200190815260200160002054106104fd576005600160008673ffffffffffffffffffffffffffffffffffffffff1673ffffffffffffffffffffffffffffffffffffffff16815260200190815260200160002060008282546104f59190611522565b925050819055505b60018260020160006101000a81548160ff0219169083151502179055505b50505050565b6060806000600260008573ffffffffffffffffffffffffffffffffffffffff1673ffffffffffffffffffffffffffffffffffffffff16815260200190815260200160002080549050905060008167ffffffffffffffff8111156105ad577f4e487b7100000000000000000000000000000000000000000000000000000000600052604160045260246000fd5b6040519080825280602002602001820160405280156105e657816020015b6105d3610d1e565b8152602001906001900390816105cb5790505b50905060008267ffffffffffffffff81111561062b577f4e487b7100000000000000000000000000000000000000000000000000000000600052604160045260246000fd5b6040519080825280602002602001820160405280156106595781602001602082028036833780820191505090505b50905060005b8381101561085557600260008873ffffffffffffffffffffffffffffffffffffffff1673ffffffffffffffffffffffffffffffffffffffff16815260200190815260200160002081815481106106de577f4e487b7100000000000000000000000000000000000000000000000000000000600052603260045260246000fd5b906000526020600020906004020160405180608001604052908160008201548152602001600182015481526020016002820160009054906101000a900460ff16151515158152602001600382018054610736906115e0565b80601f0160208091040260200160405190810160405280929190818152602001828054610762906115e0565b80156107af5780601f10610784576101008083540402835291602001916107af565b820191906000526020600020905b81548152906001019060200180831161079257829003601f168201915b5050505050815250508382815181106107f1577f4e487b7100000000000000000000000000000000000000000000000000000000600052603260045260246000fd5b602002602001018190525080828281518110610836577f4e487b7100000000000000000000000000000000000000000000000000000000600052603260045260246000fd5b602002602001018181525050808061084d90611612565b91505061065f565b50818194509450505050915091565b60008054906101000a900473ffffffffffffffffffffffffffffffffffffffff1673ffffffffffffffffffffffffffffffffffffffff163373ffffffffffffffffffffffffffffffffffffffff16146108f2576040517f08c379a00000000000000000000000000000000000000000000000000000000081526004016108e9906112ba565b60405180910390fd5b6000600162278d00426109059190611497565b61090f9190611441565b905060006205460062278d008361092691906114c8565b6109309190611441565b9050600260008673ffffffffffffffffffffffffffffffffffffffff1673ffffffffffffffffffffffffffffffffffffffff1681526020019081526020016000206040518060800160405280868152602001838152602001600015158152602001858152509080600181540180825580915050600190039060005260206000209060040201600090919091909150600082015181600001556020820151816001015560408201518160020160006101000a81548160ff0219169083151502179055506060820151816003019080519060200190610a0e929190610d48565b5050506000600160008773ffffffffffffffffffffffffffffffffffffffff1673ffffffffffffffffffffffffffffffffffffffff168152602001908152602001600020541415610aa05761028a600160008773ffffffffffffffffffffffffffffffffffffffff1673ffffffffffffffffffffffffffffffffffffffff168152602001908152602001600020819055505b6000600183610aaf9190611441565b90506205460062278d0082610ac491906114c8565b610ace9190611441565b9150600260008773ffffffffffffffffffffffffffffffffffffffff1673ffffffffffffffffffffffffffffffffffffffff1681526020019081526020016000206040518060800160405280878152602001848152602001600015158152602001868152509080600181540180825580915050600190039060005260206000209060040201600090919091909150600082015181600001556020820151816001015560408201518160020160006101000a81548160ff0219169083151502179055506060820151816003019080519060200190610bac929190610d48565b505050505050505050565b60016020528060005260406000206000915090505481565b60008054906101000a900473ffffffffffffffffffffffffffffffffffffffff1681565b60026020528160005260406000208181548110610c0f57600080fd5b9060005260206000209060040201600091509150508060000154908060010154908060020160009054906101000a900460ff1690806003018054610c52906115e0565b80601f0160208091040260200160405190810160405280929190818152602001828054610c7e906115e0565b8015610ccb5780601f10610ca057610100808354040283529160200191610ccb565b820191906000526020600020905b815481529060010190602001808311610cae57829003601f168201915b5050505050905084565b6000600160008373ffffffffffffffffffffffffffffffffffffffff1673ffffffffffffffffffffffffffffffffffffffff168152602001908152602001600020549050919050565b60405180608001604052806000815260200160008152602001600015158152602001606081525090565b828054610d54906115e0565b90600052602060002090601f016020900481019282610d765760008555610dbd565b82601f10610d8f57805160ff1916838001178555610dbd565b82800160010185558215610dbd579182015b82811115610dbc578251825591602001919060010190610da1565b5b509050610dca9190610dce565b5090565b5b80821115610de7576000816000905550600101610dcf565b5090565b6000610dfe610df984611372565b611341565b905082815260208101848484011115610e1657600080fd5b610e2184828561159e565b509392505050565b600081359050610e3881611728565b92915050565b600082601f830112610e4f57600080fd5b8135610e5f848260208601610deb565b91505092915050565b600081359050610e778161173f565b92915050565b600060208284031215610e8f57600080fd5b6000610e9d84828501610e29565b91505092915050565b60008060408385031215610eb957600080fd5b6000610ec785828601610e29565b9250506020610ed885828601610e68565b9150509250929050565b600080600060608486031215610ef757600080fd5b6000610f0586828701610e29565b9350506020610f1686828701610e68565b925050604084013567ffffffffffffffff811115610f3357600080fd5b610f3f86828701610e3e565b9150509250925092565b6000610f5583836111a7565b905092915050565b6000610f69838361120a565b60208301905092915050565b610f7e81611556565b82525050565b6000610f8f826113c2565b610f9981856113fd565b935083602082028501610fab856113a2565b8060005b85811015610fe75784840389528151610fc88582610f49565b9450610fd3836113e3565b925060208a01995050600181019050610faf565b50829750879550505050505092915050565b6000611004826113cd565b61100e818561140e565b9350611019836113b2565b8060005b8381101561104a5781516110318882610f5d565b975061103c836113f0565b92505060018101905061101d565b5085935050505092915050565b61106081611568565b82525050565b61106f81611568565b82525050565b6000611080826113d8565b61108a818561141f565b935061109a8185602086016115ad565b6110a381611717565b840191505092915050565b60006110b9826113d8565b6110c38185611430565b93506110d38185602086016115ad565b6110dc81611717565b840191505092915050565b60006110f4601283611430565b91507f496e76616c69642062696c6c20696e64657800000000000000000000000000006000830152602082019050919050565b6000611134601183611430565b91507f42696c6c20616c726561647920706169640000000000000000000000000000006000830152602082019050919050565b6000611174601683611430565b91507f4e6f742074686520636f6e7472616374206f776e6572000000000000000000006000830152602082019050919050565b60006080830160008301516111bf600086018261120a565b5060208301516111d2602086018261120a565b5060408301516111e56040860182611057565b50606083015184820360608601526111fd8282611075565b9150508091505092915050565b61121381611594565b82525050565b61122281611594565b82525050565b600060208201905061123d6000830184610f75565b92915050565b6000604082019050818103600083015261125d8185610f84565b905081810360208301526112718184610ff9565b90509392505050565b60006020820190508181036000830152611293816110e7565b9050919050565b600060208201905081810360008301526112b381611127565b9050919050565b600060208201905081810360008301526112d381611167565b9050919050565b60006020820190506112ef6000830184611219565b92915050565b600060808201905061130a6000830187611219565b6113176020830186611219565b6113246040830185611066565b818103606083015261133681846110ae565b905095945050505050565b6000604051905081810181811067ffffffffffffffff82111715611368576113676116e8565b5b8060405250919050565b600067ffffffffffffffff82111561138d5761138c6116e8565b5b601f19601f8301169050602081019050919050565b6000819050602082019050919050565b6000819050602082019050919050565b600081519050919050565b600081519050919050565b600081519050919050565b6000602082019050919050565b6000602082019050919050565b600082825260208201905092915050565b600082825260208201905092915050565b600082825260208201905092915050565b600082825260208201905092915050565b600061144c82611594565b915061145783611594565b9250827fffffffffffffffffffffffffffffffffffffffffffffffffffffffffffffffff0382111561148c5761148b61165b565b5b828201905092915050565b60006114a282611594565b91506114ad83611594565b9250826114bd576114bc61168a565b5b828204905092915050565b60006114d382611594565b91506114de83611594565b9250817fffffffffffffffffffffffffffffffffffffffffffffffffffffffffffffffff04831182151516156115175761151661165b565b5b828202905092915050565b600061152d82611594565b915061153883611594565b92508282101561154b5761154a61165b565b5b828203905092915050565b600061156182611574565b9050919050565b60008115159050919050565b600073ffffffffffffffffffffffffffffffffffffffff82169050919050565b6000819050919050565b82818337600083830152505050565b60005b838110156115cb5780820151818401526020810190506115b0565b838111156115da576000848401525b50505050565b600060028204905060018216806115f857607f821691505b6020821081141561160c5761160b6116b9565b5b50919050565b600061161d82611594565b91507fffffffffffffffffffffffffffffffffffffffffffffffffffffffffffffffff8214156116505761164f61165b565b5b600182019050919050565b7f4e487b7100000000000000000000000000000000000000000000000000000000600052601160045260246000fd5b7f4e487b7100000000000000000000000000000000000000000000000000000000600052601260045260246000fd5b7f4e487b7100000000000000000000000000000000000000000000000000000000600052602260045260246000fd5b7f4e487b7100000000000000000000000000000000000000000000000000000000600052604160045260246000fd5b6000601f19601f8301169050919050565b61173181611556565b811461173c57600080fd5b50565b61174881611594565b811461175357600080fd5b5056fea2646970667358221220ca89ad2fe242d44f52bf312104c6ec48ce9418db4fa263d04608a41b1cb2927864736f6c63430008000033",
  "linkReferences": {},
  "deployedLinkReferences": {}
}